:020000040800F2
:1000000018040020AD02000817100008C10F0008F6
:1000100015100008190300088D11000800000000E9
:100020000000000000000000000000001B1000089D
:100030001B03000800000000191000081D10000834
:10004000C7020008C7020008C7020008C70200086C
:10005000C7020008C7020008C7020008C70200085C
:10006000C7020008C7020008C7020008C70200084C
:10007000C7020008C7020008C7020008C70200083C
:10008000C7020008C7020008C7020008C70200082C
:10009000C7020008C7020008C7020008C70200081C
:1000A000C7020008C7020008C7020008C70200080C
:1000B000C7020008C7020008C7020008C7020008FC
:1000C000C7020008C7020008C7020008C7020008EC
:1000D000C7020008C7020008C7020008C7020008DC
:1000E000C7020008C702000800000000C70200089D
:1000F000C7020008C7020008C7020008C7020008BC
:10010000C7020008C7020008C7020008C7020008AB
:10011000C7020008C7020008C7020008C70200089B
:10012000C7020008C7020008C7020008C70200088B
:10013000C7020008C7020008C7020008C70200087B
:1001400000000000000000000000000000000000AF
:10015000C7020008C7020008C7020008C70200085B
:10016000C7020008C7020008C7020008C70200084B
:10017000C7020008C7020008C7020008000000000C
:10018000C7020008C7020008C7020008C70200082B
:10019000C7020008C7020008C7020008C70200081B
:1001A000C7020008C7020008C7020008C70200080B
:1001B000C7020008C7020008C7020008C7020008FB
:1001C000C7020008C7020008C7020008C7020008EB
:1001D000C7020008C7020008C7020008C7020008DB
:1001E000C7020008C7020008C7020008C7020008CB
:1001F000C7020008C7020008C7020008C7020008BB
:10020000C7020008C7020008C7020008C7020008AA
:10021000C7020008C7020008C7020008C70200089A
:10022000C7020008C7020008C7020008000000005B
:10023000C7020008C702000800000000C70200084B
:10024000C7020008C7020008C7020008C70200086A
:10025000C7020008C7020008C7020008C70200085A
:10026000C7020008C7020008C7020008C70200084A
:10027000C7020008C7020008C7020008000000000B
:10028000C7020008C7020008C702000800000000FB
:1002900000000000C7020008DFF80CD000F02AF8C8
:1002A00000480047CF110008180400200648804786
:1002B00006480047FEE7FEE7FEE7FEE7FEE7FEE74B
:1002C000FEE7FEE7FEE7FEE7F110000899020008EE
:1002D000D2B201E000F8012B491EFBD27047002288
:1002E000F6E710B513460A4604461946FFF7F0FF35
:1002F000204610BD064C074D06E0E06840F00103C3
:1003000094E8070098471034AC42F6D3FFF7C8FFD3
:10031000F011000810120008FEE770472DE9F84FB1
:10032000714C00234FF0B04E4FF001094FF0030B1A
:100330004FF00F0AD0E000BF09FA03F812EA0802F2
:1003400074D04D68022D01D0122D0FD1DD085F074A
:1003500000EB850500950E692D6AFF0E0AFA07FC71
:10036000BE4025EA0C052E43009D2E625D000F79EC
:1003700006680BFA05FC07F0030726EA0C06AF40F7
:10038000374307604E68012E05D0022E03D0112E90
:1003900001D0122E0FD18668CF6826EA0C06AF4036
:1003A0003743876046680F7926EA0806C7F30017C7
:1003B0009F4037434760C6688F6826EA0C06AF4007
:1003C0003743C7604D68ED0030D5484D2E6846F084
:1003D00002062E602D6823F0030606F1B04605F0F4
:1003E000020500959D072F0FD6F80854DFF800810D
:1003F0000AFA07FC404525EA0C0502D14FF0000C33
:1004000041E0DFF8F0C0604502D14FF0010C3AE066
:10041000DFF8E4C0604502D14FF0020C33E0DFF8B2
:10042000DCC0604503D14FF0030C2CE053E0DFF853
:10043000D0C0604502D14FF0040C24E0DFF8C4C006
:10044000604502D14FF0050C1DE0DFF8BCC06045EF
:1004500002D14FF0060C16E0DFF8B0C0604502D1C3
:100460004FF0070C0FE0DFF8A8C0604502D14FF055
:10047000080C08E0DFF89CC0604502D14FF0090C81
:1004800001E04FF00A0C0CFA07FC4CEA050CC6F828
:1004900008C425684E6825EA0205F60300D5154311
:1004A000256065684E6825EA0205B60300D5154348
:1004B00065604F687546DEF80060FF0226EA0206B6
:1004C00000D516432E604F686E68BF0226EA02060A
:1004D00000D516436E605B1C0A6832FA03F57FF4A0
:1004E0002BAFBDE8F88F000080000058F44402589C
:1004F000000002580004025800080258000C02587C
:10050000001002580014025800180258001C02582B
:100510000020025800240258426931EA020200D148
:100520000904816170470AB1816170470904FBE7E2
:1005300001480068000C70470010005C01488068AA
:1005400070470000000000200248816802781144D2
:100550008160704700000020032010B500F076F89D
:1005600000F0FEF90E490F4A0F4B0C68C4F3032448
:10057000145D04F01F04E0401860096801F00F01E9
:10058000515C01F01F01C84008490860002000F0DC
:100590000FF808B1012010BD00F02AF8002010BDAE
:1005A00018440258E01100080C0000201000002040
:1005B00070B50D4D04462878A0B14FF47A71B1FBA7
:1005C000F0F00A490968B1FBF0F000F0E6FC48B928
:1005D000102C07D200222146501E00F017F80020F0
:1005E0006C6070BD012070BD000000200C00002078
:1005F000054808B5016841F002010160006800F09B
:100600000200009008BD0000F44402580E4BF0B404
:100610001B680D46C3F30223C3F10706042E00D95D
:100620000426191D072901D2002300E0DB1E012446
:1006300004FA06F19C40491E2940641E994014406A
:100640002143F0BC00F0A3BD0CED00E0064900F032
:10065000070210B54FF6FF040868044B204040EA3B
:1006600002201843086010BD0CED00E00000FA0500
:10067000134970B50A68D243520705D5096801F0DD
:100680000701814213D118E00A6822F007020243F1
:100690000A60FFF753FF0A4D4FF47A760446083D8F
:1006A00007E000BFFFF74AFF001BB04201D901205D
:1006B00070BD2868C0438004F4D4002070BD0000E1
:1006C0000C48025810B500F04BF9064A064912686A
:1006D000064BC2F303229A5C02F01F02D04008606E
:1006E00010BD0000184402580C000020E011000862
:1006F0002DE9F05F04000F467ED0DFF82482D8F8A1
:10070000000000F00F00B8420CD2D8F8001021F021
:100710000F013943C8F80010D8F8000000F00F00AE
:10072000B84269D120787F4D40070AD520692968F1
:1007300001F07001884204D9296821F07001014359
:1007400029602078774E361D00070AD56069316828
:1007500001F07001884204D9316821F07001014331
:1007600031602078C0060AD5A069316801F4E061E3
:10077000884204D9316821F4E06101433160207876
:10078000DFF8A0B180060BF1080B0CD5E1695846E3
:10079000DBF8002002F07002914204D9026822F0D6
:1007A00070020A430260207880070AD5E068296851
:1007B00001F00F01884204D9296821F00F0101439B
:1007C00029602078C0073ED05649A26828681839A9
:1007D00020F47060104328606068022818D0032855
:1007E00019D00968012819D0490700294ADADFF829
:1007F00034A1AAF1080A00E044E0DAF8002022F06F
:1008000007020243CAF80020FFF798FE814612E073
:1008100009688903E9E709688901E6E7C905E4E7AA
:10082000FFF78CFEA0EB090141F28830814202D92A
:100830000320BDE8F09F6168DAF8000000F038009E
:10084000B0EBC10FECD1207880070AD5E0682968A9
:1008500001F00F01884204D2296821F00F01014301
:100860002960D8F80010404601F00F01B9420BD9B9
:10087000016821F00F0139430160006800F00F00AA
:10088000B84201D00120D4E7207840070AD520697A
:10089000296801F07001884204D2296821F07001B2
:1008A00001432960207800070AD56069316801F0AA
:1008B0007001884204D2316821F070010143316037
:1008C0002078C0060AD5A069316801F4E061884249
:1008D00004D2316821F4E061014331602078800660
:1008E0000CD5E1695846DBF8002002F07002914215
:1008F00004D2026822F070020A43026000F030F86D
:100900002968094AC1F30321515C01F01F01C84065
:100910000649086006480068BDE8F05FFFF748BE7A
:100920000020005218440258E01100080C0000207A
:100930000400002010B5FFF7C5FE064A06491268FC
:10094000064B02F00F029A5C02F01F02D0400860D2
:1009500010BD00001844025810000020E0110008EB
:10096000454970B545480968434B103B11F03802C2
:1009700008D00111082A03D0102A0BD0182A0BD056
:10098000084670BD19688906FBD51968C1F3C10115
:10099000C84070BD3A4870BD3749374D18310C1DFD
:1009A00024350A68096826682D6802F0030406F0F9
:1009B0000102C1F30511C5F3CC0515FB02F200EEEF
:1009C000102AB8EE400AE9B32F4ADFED2E0AB7EE3F
:1009D000001A6CB1DFED2D1A012C01D0022C43D08E
:1009E00002EE101A1068F8EE422A81EEA22A1EE0EA
:1009F0001C68A40611D51B6801EE901A1168C3F398
:100A0000C103F8EE612AD84001EE900AC1F3080054
:100A1000F8EE611A81EEA22A0BE001EE901ADFEDEA
:100A20001C2A00BFF8EE611A106882EEA12AC0F3FA
:100A3000080001EE900AF8EE611A40EE201A31EE3D
:100A4000810A00E015E022EE000A1068C0F346209B
:100A5000401C00EE900AF8EE600A80EE201ABCEE10
:100A6000C10A10EE100A70BD01EE901ADFED092ADE
:100A7000D8E7002070BD0000104402580090D00359
:100A800040787D0100000039304402580024744A47
:100A90000024744C20BCBE4B2DE9F05F04007CD0D8
:100AA000FF4F2078FE4D1837DFF8F493103DC00754
:100AB00048D0D9F80000396800F03800102815D067
:100AC000182803D101F0030002280FD06068B0F5A8
:100AD000803F12D010B1B0F5A02F18D0286820F4B4
:100AE00080302860286820F4802009E0286880038E
:100AF00028D560680028D2D024E0286840F48030EF
:100B00002860606888B1FFF719FD064609E028688B
:100B100040F480202860F0E7FFF710FD801B642878
:100B20007ED828688003F7D50CE0FFF707FD06465E
:100B300005E000BFFFF702FD801B6428F0D828689D
:100B40008003F7D4207841F20308D54E0C3E80078D
:100B50004BD5D9F80000396810F038000ED01828AD
:100B600001D188070AD0E06868B3296821F019012B
:100B700001432960FFF7E2FC824619E0286840073C
:100B800002D5E06800288AD0FFF7D2FC404513D890
:100B90002069316821F47C3100E0BEE041EA003098
:100BA000306022E0FFF7CAFCA0EB0A000228B7D8A9
:100BB00028684007F6D5E7E7207C316821F0FE4140
:100BC00041EA0060ECE7286820F001002860FFF7A8
:100BD000B5FC824606E000BFFFF7B0FCA0EB0A00C0
:100BE00002289DD828684007F6D42078C00659D539
:100BF000D9F80000DFF8A8B2396800F03800ABF18E
:100C0000040B082812D0182803D101F00300012892
:100C10000CD0E0690028286834D040F0800000E063
:100C2000DCE02860FFF78AFC824623E02868C005E4
:100C300023D5E069802870D11FE000BF94F8200020
:100C4000316821F0F84141EA806030602AE000BF5D
:100C500094F82010DBF8002022F07C5242EA016177
:100C6000CBF800101EE000BFFFF768FCA0EB0A0005
:100C700002289CD82868C005F6D5FFF759FC4045E6
:100C8000E6D8DBE720F080002860FFF757FC064637
:100C900005E000BFFFF752FC801B022887D82868B8
:100CA000C005F7D42078000729D57D4861696430F4
:100CB00000298046016811D041F001010160FFF771
:100CC0003DFC064605E000BFFFF738FC801B02280C
:100CD00087D8D8F800008007F6D510E021F0010190
:100CE0000160FFF72BFC064605E000BFFFF726FC7E
:100CF000801B022872D8D8F800008007F6D420782C
:100D0000800623D5A0690028286810D040F48050C0
:100D10002860FFF713FC064605E02EE1FFF70EFC06
:100D2000801B02285AD828688004F7D50EE020F4EA
:100D300080502860FFF702FC064604E0FFF7FEFB48
:100D4000801B02284AD828688004F7D420784007FE
:100D50004FD5DFF85081D8F8001041F48071C8F801
:100D60000010FFF7EBFB064605E000BFFFF7E6FBD0
:100D7000801B642832D8D8F80000C005F6D5484E4C
:100D8000A068603601280AD008B1052813D0306861
:100D900020F001003060306820F0040002E030688C
:100DA00040F001003060A06841F2883A90B1FFF74E
:100DB000C5FB80460AE0306840F004003060EEE792
:100DC000FFF7BCFBA0EB0801514507D8306880074E
:100DD000F6D50EE0FFF7B2FB804607E084E000BFE7
:100DE000FFF7ACFBA0EB080151457DD830688007C8
:100DF000F6D4606AF0B3DFF8A880D9F8001008F1E3
:100E00002008C1F3C20103296FD00228286820F00E
:100E10008070286003D0FFF791FB044682E0FFF763
:100E20008DFB064605E000BFFFF788FB801B02280C
:100E300075D828688001F7D4E26A40F2F331386847
:100E400054F8283F884340EA021018433860217B59
:100E50004FF4FE0C22894FF0FE47208A4902267D7E
:100E6000521E401EA1F5007189B20CEA0040C2F387
:100E7000080200E083E01143761E0143084807EAB8
:100E800006621143064A1C30C8F80010243201687B
:100E900021F00101016011684FF6F876B14303E0DB
:100EA0001044025800480258236A41EAC301116005
:100EB0000168A26921F00C01114301600168E26937
:100EC00021F0020111430160016841F480310160A9
:100ED000016841F400310160016841F48021016042
:100EE000016841F0010101E019E01FE0016028689C
:100EF00040F080702860FFF721FB044605E000BF4A
:100F0000FFF71CFB001B022809D828688001F7D5D1
:100F100035E000BFFFF712FB001B022802D90320B7
:100F2000BDE8F09F28688001F4D428E039680128E2
:100F3000D8F8000021D0A26A01F0030393421CD12B
:100F4000E26AC1F305118A4217D1216BC0F308028E
:100F5000491E8A4211D1616BC0F34622491E91425B
:100F60000BD1A16BC0F30642491E914205D1E16B42
:100F7000C0F30660491E814201D00120D0E7002065
:100F8000CEE704284FF0E020016903D021F00401EE
:100F90000161704741F00401FAE7401EB0F1807F23
:100FA00010B501D3012010BD4FF0E02460610F2186
:100FB000601700F0ECF80020A0610721216110BD4E
:100FC000FEE7000030B587B014216846FFF787F9C7
:100FD0000E48016841F01001016000684FF4007490
:100FE0000B4D002200F01000214605902846FFF727
:100FF0009AFA002100940120CDE9010128460391CD
:101000006946FFF78BF907B030BD0000E044025895
:1010100000100258FEE770477047704710B5FFF7A1
:1010200093FABDE8104002484FF40071FFF774BA1C
:101030000010025810B5FFF77DFC0A21B0FBF1F05B
:10104000FFF7ABFF0420FFF79CFF0022BDE8104034
:10105000501E1146FFF7DABA30B59DB04C216846F4
:10106000FFF73DF9202113A8FFF739F90220FFF718
:10107000FFFA1D4900241D480A6822F001020A6097
:101080000968016841F440410160016801F4404190
:101090001B9101688904FCD54025022000900123A2
:1010A000CDE9033504210B913222CDE90904CDE9C4
:1010B0000C200FAA0E900C2382E8190068461294A7
:1010C000FFF7EAFC08221A95CDE91625D30113AAE9
:1010D0003F200321CDE9185382E81300022113A811
:1010E000FFF706FB1DB030BD2C040058184802580D
:1010F000214A30B5214914680020204B44F4700483
:10110000146010330A681E4D42F001020A60186034
:101110000A681A4B2A400A6018331C1D251D174AFD
:10112000186028322060131D28601C1D251D1060CA
:101130002A1D1860131D20601C1D2860251D1060CD
:101140001860206028600A680C4B0E4C22F4802244
:1011500060330A60186020686FF30F00B0F1005F21
:1011600003D209490120C1F808014FF0006002498B
:101170008039086030BD000088ED00E0004402586E
:101180007FEDF6EA0010005C00800051FEE70907E1
:1011900000284FEA116104DB00F1E02080F8001420
:1011A000704700F00F0000F1E02080F8141D704738
:1011B00002E008C8121F08C1002AFAD17047704720
:1011C000002001E001C1121F002AFBD17047FFF788
:1011D000C3F9FFF741FFFFF7F5FEFFF72BFFFEE72F
:1011E00000000000010203040102030406070809CD
:1011F000101200080000002014000000B0110008C8
:10120000241200081400002004040000C01100088B
:101210000100000010000000000000000090D0035A
:041220000090D00367
:040000050800029954
:00000001FF
