:020000040800F2
:1000000018040020AD0200081B1000085D0F000856
:100010001910000819030008411100080000000031
:100020000000000000000000000000001F10000899
:100030001B030008000000001D100008211000082C
:10004000C7020008C7020008C7020008C70200086C
:10005000C7020008C7020008C7020008C70200085C
:10006000C7020008C7020008C7020008C70200084C
:10007000C7020008C7020008C7020008C70200083C
:10008000C7020008C7020008C7020008C70200082C
:10009000C7020008C7020008C7020008C70200081C
:1000A000C7020008C7020008C7020008C70200080C
:1000B000C7020008C7020008C7020008C7020008FC
:1000C000C7020008C7020008C7020008C7020008EC
:1000D000C7020008C7020008C7020008C7020008DC
:1000E000C7020008C702000800000000C70200089D
:1000F000C7020008C7020008C7020008C7020008BC
:10010000C7020008C7020008C7020008C7020008AB
:10011000C7020008C7020008C7020008C70200089B
:10012000C7020008C7020008C7020008C70200088B
:10013000C7020008C7020008C7020008C70200087B
:1001400000000000000000000000000000000000AF
:10015000C7020008C7020008C7020008C70200085B
:10016000C7020008C7020008C7020008C70200084B
:10017000C7020008C7020008C7020008000000000C
:10018000C7020008C7020008C7020008C70200082B
:10019000C7020008C7020008C7020008C70200081B
:1001A000C7020008C7020008C7020008C70200080B
:1001B000C7020008C7020008C7020008C7020008FB
:1001C000C7020008C7020008C7020008C7020008EB
:1001D000C7020008C7020008C7020008C7020008DB
:1001E000C7020008C7020008C7020008C7020008CB
:1001F000C7020008C7020008C7020008C7020008BB
:10020000C7020008C7020008C7020008C7020008AA
:10021000C7020008C7020008C7020008C70200089A
:10022000C7020008C7020008C7020008000000005B
:10023000C7020008C702000800000000C70200084B
:10024000C7020008C7020008C7020008C70200086A
:10025000C7020008C7020008C7020008C70200085A
:10026000C7020008C7020008C7020008C70200084A
:10027000C7020008C7020008C7020008000000000B
:10028000C7020008C7020008C702000800000000FB
:1002900000000000C7020008DFF80CD000F02AF8C8
:1002A00000480047851100081804002006488047D0
:1002B00006480047FEE7FEE7FEE7FEE7FEE7FEE74B
:1002C000FEE7FEE7FEE7FEE7A5100008990200083A
:1002D000D2B201E000F8012B491EFBD27047002288
:1002E000F6E710B513460A4604461946FFF7F0FF35
:1002F000204610BD064C074D06E0E06840F00103C3
:1003000094E8070098471034AC42F6D3FFF7C8FFD3
:10031000E811000808120008FEE770472DE9F84FC1
:10032000714C00234FF0B04E4FF001094FF0030B1A
:100330004FF00F0AD0E000BF09FA03F812EA0802F2
:1003400074D04D68022D01D0122D0FD1DD085F074A
:1003500000EB850500950E692D6AFF0E0AFA07FC71
:10036000BE4025EA0C052E43009D2E625D000F79EC
:1003700006680BFA05FC07F0030726EA0C06AF40F7
:10038000374307604E68012E05D0022E03D0112E90
:1003900001D0122E0FD18668CF6826EA0C06AF4036
:1003A0003743876046680F7926EA0806C7F30017C7
:1003B0009F4037434760C6688F6826EA0C06AF4007
:1003C0003743C7604D68ED0030D5484D2E6846F084
:1003D00002062E602D6823F0030606F1B04605F0F4
:1003E000020500959D072F0FD6F80854DFF800810D
:1003F0000AFA07FC404525EA0C0502D14FF0000C33
:1004000041E0DFF8F0C0604502D14FF0010C3AE066
:10041000DFF8E4C0604502D14FF0020C33E0DFF8B2
:10042000DCC0604503D14FF0030C2CE053E0DFF853
:10043000D0C0604502D14FF0040C24E0DFF8C4C006
:10044000604502D14FF0050C1DE0DFF8BCC06045EF
:1004500002D14FF0060C16E0DFF8B0C0604502D1C3
:100460004FF0070C0FE0DFF8A8C0604502D14FF055
:10047000080C08E0DFF89CC0604502D14FF0090C81
:1004800001E04FF00A0C0CFA07FC4CEA050CC6F828
:1004900008C425684E6825EA0205F60300D5154311
:1004A000256065684E6825EA0205B60300D5154348
:1004B00065604F687546DEF80060FF0226EA0206B6
:1004C00000D516432E604F686E68BF0226EA02060A
:1004D00000D516436E605B1C0A6832FA03F57FF4A0
:1004E0002BAFBDE8F88F000080000058F44402589C
:1004F000000002580004025800080258000C02587C
:10050000001002580014025800180258001C02582B
:1005100000200258002402580069084000D0012041
:100520007047426931EA020200D1090481617047D3
:100530000AB1816170470904FBE7000001480068C7
:10054000000C70470010005C014880687047000094
:1005500000000020024881680278114481607047E1
:1005600000000020032010B500F076F800F0D2F96A
:100570000E490F4A0F4B0C68C4F30324145D04F0BA
:100580001F04E0401860096801F00F01515C01F0A0
:100590001F01C84008490860002000F00FF808B1AA
:1005A000012010BD00F02AF8002010BD18440258A8
:1005B000D81100080C0000201000002070B50D4D6F
:1005C00004462878A0B14FF47A71B1FBF0F00A49E3
:1005D0000968B1FBF0F000F0AEFC48B9102C07D26E
:1005E00000222146501E00F017F800206C6070BDFC
:1005F000012070BD000000200C000020054808B557
:10060000016841F002010160006800F00200009002
:1006100008BD0000F44402580E4BF0B41B680D46B0
:10062000C3F30223C3F10706042E00D90426191DC3
:10063000072901D2002300E0DB1E012404FA06F1A1
:100640009C40491E2940641E994014402143F0BC3F
:1006500000F077BD0CED00E0064900F0070210B590
:100660004FF6FF040868044B204040EA022018437C
:10067000086010BD0CED00E00000FA05134970B5EC
:100680000A68D243520705D5096801F00701814283
:1006900013D118E00A6822F0070202430A60FFF74C
:1006A00053FF0A4D4FF47A760446083D07E000BF39
:1006B000FFF74AFF001BB04201D9012070BD286836
:1006C000C0438004F4D4002070BD00000C480258E0
:1006D0002DE9F05F04000F467ED0DFF82482D8F8C1
:1006E000000000F00F00B8420CD2D8F8001021F042
:1006F0000F013943C8F80010D8F8000000F00F00CF
:10070000B84269D120787F4D40070AD52069296811
:1007100001F07001884204D9296821F07001014379
:1007200029602078774E361D00070AD56069316848
:1007300001F07001884204D9316821F07001014351
:1007400031602078C0060AD5A069316801F4E06103
:10075000884204D9316821F4E06101433160207896
:10076000DFF8A0B180060BF1080B0CD5E169584603
:10077000DBF8002002F07002914204D9026822F0F6
:1007800070020A430260207880070AD5E068296871
:1007900001F00F01884204D9296821F00F010143BB
:1007A00029602078C0073ED05649A26828681839C9
:1007B00020F47060104328606068022818D0032875
:1007C00019D00968012819D0490700294ADADFF849
:1007D00034A1AAF1080A00E044E0DAF8002022F08F
:1007E00007020243CAF80020FFF7AEFE814612E07E
:1007F00009688903E9E709688901E6E7C905E4E7CB
:10080000FFF7A2FEA0EB090141F28830814202D934
:100810000320BDE8F09F6168DAF8000000F03800BE
:10082000B0EBC10FECD1207880070AD5E0682968C9
:1008300001F00F01884204D2296821F00F01014321
:100840002960D8F80010404601F00F01B9420BD9D9
:10085000016821F00F0139430160006800F00F00CA
:10086000B84201D00120D4E7207840070AD520699A
:10087000296801F07001884204D2296821F07001D2
:1008800001432960207800070AD56069316801F0CA
:100890007001884204D2316821F070010143316057
:1008A0002078C0060AD5A069316801F4E061884269
:1008B00004D2316821F4E061014331602078800680
:1008C0000CD5E1695846DBF8002002F07002914235
:1008D00004D2026822F070020A43026000F01AF8A3
:1008E0002968094AC1F30321515C01F01F01C84086
:1008F0000649086006480068BDE8F05FFFF75EBE85
:100900000020005218440258D81100080C000020A2
:1009100004000020454970B545480968434B103B29
:1009200011F0380208D00111082A03D0102A0BD088
:10093000182A0BD0084670BD19688906FBD51968BE
:10094000C1F3C101C84070BD3A4870BD3749374D49
:1009500018310C1D24350A68096826682D6802F0D4
:10096000030406F00102C1F30511C5F3CC0515FB24
:1009700002F200EE102AB8EE400AE9B32F4ADFED8A
:100980002E0AB7EE001A6CB1DFED2D1A012C01D042
:10099000022C43D002EE101A1068F8EE422A81EEC3
:1009A000A22A1EE01C68A40611D51B6801EE901A4D
:1009B0001168C3F3C103F8EE612AD84001EE900A32
:1009C000C1F30800F8EE611A81EEA22A0BE001EEF5
:1009D000901ADFED1C2A00BFF8EE611A106882EE53
:1009E000A12AC0F3080001EE900AF8EE611A40EE69
:1009F000201A31EE810A00E015E022EE000A1068AC
:100A0000C0F34620401C00EE900AF8EE600A80EE2B
:100A1000201ABCEEC10A10EE100A70BD01EE901A49
:100A2000DFED092AD8E7002070BD0000104402580D
:100A30000090D00340787D01000000393044025816
:100A40000024744A0024744C20BCBE4B2DE9F05F96
:100A500004007CD0FF4F2078FE4D1837DFF8F49368
:100A6000103DC00748D0D9F80000396800F03800C0
:100A7000102815D0182803D101F0030002280FD048
:100A80006068B0F5803F12D010B1B0F5A02F18D03B
:100A9000286820F480302860286820F4802009E04D
:100AA0002868800328D560680028D2D024E0286810
:100AB00040F480302860606888B1FFF745FD064645
:100AC00009E0286840F480202860F0E7FFF73CFD4B
:100AD000801B64287ED828688003F7D50CE0FFF7D8
:100AE00033FD064605E000BFFFF72EFD801B64289E
:100AF000F0D828688003F7D4207841F20308D54E57
:100B00000C3E80074BD5D9F80000396810F038004A
:100B10000ED0182801D188070AD0E06868B3296888
:100B200021F0190101432960FFF70EFD824619E00B
:100B30002868400702D5E06800288AD0FFF7FEFC4D
:100B4000404513D82069316821F47C3100E0BEE0D3
:100B500041EA0030306022E0FFF7F6FCA0EB0A002B
:100B60000228B7D828684007F6D5E7E7207C316827
:100B700021F0FE4141EA0060ECE7286820F0010026
:100B80002860FFF7E1FC824606E000BFFFF7DCFCCF
:100B9000A0EB0A0002289DD828684007F6D42078E8
:100BA000C00659D5D9F80000DFF8A8B2396800F0BE
:100BB0003800ABF1040B082812D0182803D101F03B
:100BC000030001280CD0E0690028286834D040F0E8
:100BD000800000E0DCE02860FFF7B6FC824623E0FE
:100BE0002868C00523D5E069802870D11FE000BFC8
:100BF00094F82000316821F0F84141EA80603060CB
:100C00002AE000BF94F82010DBF8002022F07C528C
:100C100042EA0161CBF800101EE000BFFFF794FC30
:100C2000A0EB0A0002289CD82868C005F6D5FFF77B
:100C300085FC4045E6D8DBE720F080002860FFF720
:100C400083FC064605E000BFFFF77EFC801B022800
:100C500087D82868C005F7D42078000729D57D48B3
:100C60006169643000298046016811D041F00101BA
:100C70000160FFF769FC064605E000BFFFF764FC72
:100C8000801B022887D8D8F800008007F6D510E02E
:100C900021F001010160FFF757FC064605E000BFA7
:100CA000FFF752FC801B022872D8D8F8000080079A
:100CB000F6D42078800623D5A0690028286810D0B3
:100CC00040F480502860FFF73FFC064605E02EE127
:100CD000FFF73AFC801B02285AD828688004F7D511
:100CE0000EE020F480502860FFF72EFC064604E05A
:100CF000FFF72AFC801B02284AD828688004F7D412
:100D0000207840074FD5DFF85081D8F8001041F423
:100D10008071C8F80010FFF717FC064605E000BF19
:100D2000FFF712FC801B642832D8D8F80000C005F9
:100D3000F6D5484EA068603601280AD008B10528CB
:100D400013D0306820F001003060306820F00400DB
:100D500002E0306840F001003060A06841F2883A5B
:100D600090B1FFF7F1FB80460AE0306840F00400E4
:100D70003060EEE7FFF7E8FBA0EB0801514507D82C
:100D800030688007F6D50EE0FFF7DEFB804607E00F
:100D900084E000BFFFF7D8FBA0EB080151457DD8E8
:100DA00030688007F6D4606AF0B3DFF8A880D9F81D
:100DB000001008F12008C1F3C20103296FD00228F6
:100DC000286820F08070286003D0FFF7BDFB044640
:100DD00082E0FFF7B9FB064605E000BFFFF7B4FB72
:100DE000801B022875D828688001F7D4E26A40F297
:100DF000F331386854F8283F884340EA021018431A
:100E00003860217B4FF4FE0C22894FF0FE47208A88
:100E10004902267D521E401EA1F5007189B20CEADE
:100E20000040C2F3080200E083E01143761E014354
:100E3000084807EA06621143064A1C30C8F8001049
:100E40002432016821F00101016011684FF6F87643
:100E5000B14303E01044025800480258236A41EAB3
:100E6000C30111600168A26921F00C011143016006
:100E70000168E26921F0020111430160016841F457
:100E800080310160016841F400310160016841F482
:100E900080210160016841F0010101E019E01FE0DB
:100EA0000160286840F080702860FFF74DFB044621
:100EB00005E000BFFFF748FB001B022809D828689F
:100EC0008001F7D535E000BFFFF73EFB001B02288D
:100ED00002D90320BDE8F09F28688001F4D428E0FF
:100EE00039680128D8F8000021D0A26A01F0030374
:100EF00093421CD1E26AC1F305118A4217D1216BDA
:100F0000C0F30802491E8A4211D1616BC0F3462228
:100F1000491E91420BD1A16BC0F30642491E91427A
:100F200005D1E16BC0F30660491E814201D001206A
:100F3000D0E70020CEE7401EB0F1807F10B501D38E
:100F4000012010BD4FF0E02460610F21601700F018
:100F5000F8F80020A0610721216110BDFEE770B5FF
:100F60000C460546FFF7D8FA012801D0002070BDD5
:100F700021462846FFF7D0FA0128F9D0012070BD9C
:100F8000F0B587B014216846FFF7A9F91E4801683B
:100F900041F004010160016801F00401059101685C
:100FA00041F080010160016801F080010591016854
:100FB00041F00101016000684FF4E056134F002238
:100FC00000F00100314605903846FFF7B1FA0024E1
:100FD00069464FF400500294CDE900040C48FFF735
:100FE0009DF901250B48CDE9005469460294FFF7AD
:100FF00095F900966946CDE9015438460394FFF708
:101000008DF907B0F0BD0000E0440258001C025802
:101010000008025800000258FEE77047704770470A
:10102000FFF798BA10B59CB04C216846FFF757F906
:10103000202113A8FFF753F90220FFF71FFB1749E0
:101040000A68174822F001020A600968016821F461
:10105000404141F4804101600168002401F44041B5
:101060001B9101688904FCD540220994022000905C
:1010700001216846CDE90312FFF7E8FC3F20CDE9E6
:1010800013041594002113A8169417941894199416
:101090001A94FFF71DFB1CB010BD00002C04005873
:1010A00018480258214A30B5214914680020204BC5
:1010B00044F47004146010330A681E4D42F00102BB
:1010C0000A6018600A681A4B2A400A6018331C1D0F
:1010D000251D174A186028322060131D28601C1D2A
:1010E000251D10602A1D1860131D20601C1D28601E
:1010F000251D10601860206028600A680C4B0E4C9B
:1011000022F4802260330A60186020686FF30F00B9
:10111000B0F1005F03D209490120C1F808014FF086
:10112000006002498039086030BD000088ED00E0B1
:10113000004402587FEDF6EA0010005C0080005188
:10114000FEE7090700284FEA116104DB00F1E02007
:1011500080F80014704700F00F0000F1E02080F8E4
:10116000141D704702E008C8121F08C1002AFAD1F6
:1011700070477047002001E001C1121F002AFBD117
:1011800070470000FFF7EEF9FFF74CFFFFF7F8FE9E
:101190004FF480650D4C0E4F4FF40069DFF834803A
:1011A000EE0001212046FFF7DAFE012803D129468F
:1011B0004046FFF7B6F931463846FFF7D0FE012822
:1011C000EFD149464046FFF7ACF9EAE70000025884
:1011D00000080258001C025800000000010203042D
:1011E0000102030406070809081200080000002095
:1011F00014000000641100081C12000814000020F4
:101200000404000074110008010000001000000038
:0C121000000000000090D0030090D0030C
:040000050800029954
:00000001FF
